{
  "_format": "hh-sol-artifact-1",
  "contractName": "TournamentScores",
  "sourceName": "contracts/TournamentScores.sol",
  "abi": [
    {
      "inputs": [],
      "stateMutability": "nonpayable",
      "type": "constructor"
    },
    {
      "inputs": [
        {
          "internalType": "uint256[]",
          "name": "_players",
          "type": "uint256[]"
        },
        {
          "internalType": "uint256[]",
          "name": "_scores",
          "type": "uint256[]"
        }
      ],
      "name": "addTournament",
      "outputs": [],
      "stateMutability": "nonpayable",
      "type": "function"
    },
    {
      "inputs": [],
      "name": "clearALL",
      "outputs": [],
      "stateMutability": "nonpayable",
      "type": "function"
    },
    {
      "inputs": [
        {
          "internalType": "uint256",
          "name": "tournament_id",
          "type": "uint256"
        }
      ],
      "name": "getPlayers",
      "outputs": [
        {
          "internalType": "uint256[]",
          "name": "",
          "type": "uint256[]"
        }
      ],
      "stateMutability": "view",
      "type": "function"
    },
    {
      "inputs": [
        {
          "internalType": "uint256",
          "name": "tournament_id",
          "type": "uint256"
        }
      ],
      "name": "getScores",
      "outputs": [
        {
          "internalType": "uint256[]",
          "name": "",
          "type": "uint256[]"
        }
      ],
      "stateMutability": "view",
      "type": "function"
    },
    {
      "inputs": [
        {
          "internalType": "uint256",
          "name": "tournament_id",
          "type": "uint256"
        }
      ],
      "name": "getTime",
      "outputs": [
        {
          "internalType": "uint256",
          "name": "",
          "type": "uint256"
        }
      ],
      "stateMutability": "view",
      "type": "function"
    },
    {
      "inputs": [],
      "name": "owner",
      "outputs": [
        {
          "internalType": "address",
          "name": "",
          "type": "address"
        }
      ],
      "stateMutability": "view",
      "type": "function"
    },
    {
      "inputs": [
        {
          "internalType": "uint256",
          "name": "tournament_id",
          "type": "uint256"
        }
      ],
      "name": "removeTournament",
      "outputs": [],
      "stateMutability": "nonpayable",
      "type": "function"
    }
  ],
  "bytecode": "0x6080604052348015600f57600080fd5b50336000806101000a81548173ffffffffffffffffffffffffffffffffffffffff021916908373ffffffffffffffffffffffffffffffffffffffff160217905550610f128061005f6000396000f3fe608060405234801561001057600080fd5b506004361061007d5760003560e01c80638b25edf81161005b5780638b25edf8146101125780638da5cb5b1461012e57806395b620e01461014c578063ea6c634b146101565761007d565b806304527d9014610082578063460e2049146100b257806373627826146100e2575b600080fd5b61009c6004803603810190610097919061092e565b610172565b6040516100a99190610a19565b60405180910390f35b6100cc60048036038101906100c7919061092e565b610236565b6040516100d99190610a19565b60405180910390f35b6100fc60048036038101906100f7919061092e565b6102fa565b6040516101099190610a4a565b60405180910390f35b61012c60048036038101906101279190610bbe565b610370565b005b6101366104e7565b6040516101439190610c77565b60405180910390f35b61015461050b565b005b610170600480360381019061016b919061092e565b6105a9565b005b606060018054905082106101bb576040517f08c379a00000000000000000000000000000000000000000000000000000000081526004016101b290610cef565b60405180910390fd5b600182815481106101cf576101ce610d0f565b5b906000526020600020906004020160030180548060200260200160405190810160405280929190818152602001828054801561022a57602002820191906000526020600020905b815481526020019060010190808311610216575b50505050509050919050565b6060600180549050821061027f576040517f08c379a000000000000000000000000000000000000000000000000000000000815260040161027690610cef565b60405180910390fd5b6001828154811061029357610292610d0f565b5b90600052602060002090600402016002018054806020026020016040519081016040528092919081815260200182805480156102ee57602002820191906000526020600020905b8154815260200190600101908083116102da575b50505050509050919050565b60006001805490508210610343576040517f08c379a000000000000000000000000000000000000000000000000000000000815260040161033a90610cef565b60405180910390fd5b6001828154811061035757610356610d0f565b5b9060005260206000209060040201600101549050919050565b60008054906101000a900473ffffffffffffffffffffffffffffffffffffffff1673ffffffffffffffffffffffffffffffffffffffff163373ffffffffffffffffffffffffffffffffffffffff16146103fe576040517f08c379a00000000000000000000000000000000000000000000000000000000081526004016103f590610d8a565b60405180910390fd5b8051825114610442576040517f08c379a000000000000000000000000000000000000000000000000000000000815260040161043990610df6565b60405180910390fd5b600160405180608001604052806001805490508152602001428152602001848152602001838152509080600181540180825580915050600190039060005260206000209060040201600090919091909150600082015181600001556020820151816001015560408201518160020190805190602001906104c392919061079c565b5060608201518160030190805190602001906104e092919061079c565b5050505050565b60008054906101000a900473ffffffffffffffffffffffffffffffffffffffff1681565b60008054906101000a900473ffffffffffffffffffffffffffffffffffffffff1673ffffffffffffffffffffffffffffffffffffffff163373ffffffffffffffffffffffffffffffffffffffff1614610599576040517f08c379a000000000000000000000000000000000000000000000000000000000815260040161059090610d8a565b60405180910390fd5b600160006105a791906107e9565b565b60008054906101000a900473ffffffffffffffffffffffffffffffffffffffff1673ffffffffffffffffffffffffffffffffffffffff163373ffffffffffffffffffffffffffffffffffffffff1614610637576040517f08c379a000000000000000000000000000000000000000000000000000000000815260040161062e90610d8a565b60405180910390fd5b600180549050811061067e576040517f08c379a000000000000000000000000000000000000000000000000000000000815260040161067590610cef565b60405180910390fd5b60008190505b600180805490506106959190610e45565b81101561073d57600180826106aa9190610e79565b815481106106bb576106ba610d0f565b5b9060005260206000209060040201600182815481106106dd576106dc610d0f565b5b90600052602060002090600402016000820154816000015560018201548160010155600282018160020190805461071592919061080d565b50600382018160030190805461072c92919061080d565b509050508080600101915050610684565b5060018054806107505761074f610ead565b5b60019003818190600052602060002090600402016000808201600090556001820160009055600282016000610785919061085f565b600382016000610795919061085f565b5050905550565b8280548282559060005260206000209081019282156107d8579160200282015b828111156107d75782518255916020019190600101906107bc565b5b5090506107e59190610880565b5090565b508054600082556004029060005260206000209081019061080a919061089d565b50565b82805482825590600052602060002090810192821561084e5760005260206000209182015b8281111561084d578254825591600101919060010190610832565b5b50905061085b9190610880565b5090565b508054600082559060005260206000209081019061087d9190610880565b50565b5b80821115610899576000816000905550600101610881565b5090565b5b808211156108e05760008082016000905560018201600090556002820160006108c7919061085f565b6003820160006108d7919061085f565b5060040161089e565b5090565b6000604051905090565b600080fd5b600080fd5b6000819050919050565b61090b816108f8565b811461091657600080fd5b50565b60008135905061092881610902565b92915050565b600060208284031215610944576109436108ee565b5b600061095284828501610919565b91505092915050565b600081519050919050565b600082825260208201905092915050565b6000819050602082019050919050565b610990816108f8565b82525050565b60006109a28383610987565b60208301905092915050565b6000602082019050919050565b60006109c68261095b565b6109d08185610966565b93506109db83610977565b8060005b83811015610a0c5781516109f38882610996565b97506109fe836109ae565b9250506001810190506109df565b5085935050505092915050565b60006020820190508181036000830152610a3381846109bb565b905092915050565b610a44816108f8565b82525050565b6000602082019050610a5f6000830184610a3b565b92915050565b600080fd5b6000601f19601f8301169050919050565b7f4e487b7100000000000000000000000000000000000000000000000000000000600052604160045260246000fd5b610ab382610a6a565b810181811067ffffffffffffffff82111715610ad257610ad1610a7b565b5b80604052505050565b6000610ae56108e4565b9050610af18282610aaa565b919050565b600067ffffffffffffffff821115610b1157610b10610a7b565b5b602082029050602081019050919050565b600080fd5b6000610b3a610b3584610af6565b610adb565b90508083825260208201905060208402830185811115610b5d57610b5c610b22565b5b835b81811015610b865780610b728882610919565b845260208401935050602081019050610b5f565b5050509392505050565b600082601f830112610ba557610ba4610a65565b5b8135610bb5848260208601610b27565b91505092915050565b60008060408385031215610bd557610bd46108ee565b5b600083013567ffffffffffffffff811115610bf357610bf26108f3565b5b610bff85828601610b90565b925050602083013567ffffffffffffffff811115610c2057610c1f6108f3565b5b610c2c85828601610b90565b9150509250929050565b600073ffffffffffffffffffffffffffffffffffffffff82169050919050565b6000610c6182610c36565b9050919050565b610c7181610c56565b82525050565b6000602082019050610c8c6000830184610c68565b92915050565b600082825260208201905092915050565b7f496e76616c696420746f75726e616d656e742069640000000000000000000000600082015250565b6000610cd9601583610c92565b9150610ce482610ca3565b602082019050919050565b60006020820190508181036000830152610d0881610ccc565b9050919050565b7f4e487b7100000000000000000000000000000000000000000000000000000000600052603260045260246000fd5b7f4f6e6c79206f776e65722063616e2063616c6c20746869730000000000000000600082015250565b6000610d74601883610c92565b9150610d7f82610d3e565b602082019050919050565b60006020820190508181036000830152610da381610d67565b9050919050565b7f506c617965727320616e642073636f726573206d757374206d61746368000000600082015250565b6000610de0601d83610c92565b9150610deb82610daa565b602082019050919050565b60006020820190508181036000830152610e0f81610dd3565b9050919050565b7f4e487b7100000000000000000000000000000000000000000000000000000000600052601160045260246000fd5b6000610e50826108f8565b9150610e5b836108f8565b9250828203905081811115610e7357610e72610e16565b5b92915050565b6000610e84826108f8565b9150610e8f836108f8565b9250828201905080821115610ea757610ea6610e16565b5b92915050565b7f4e487b7100000000000000000000000000000000000000000000000000000000600052603160045260246000fdfea2646970667358221220e30a620f2dd797b0ccca72de6c3b61feeb59a44272e48d26a348f606f1f7a93c64736f6c634300081c0033",
  "linkReferences": {},
  "deployedLinkReferences": {}
}